:100000000C9452010C947A010C947A010C947A01AC
:100010000C947A010C947A010C947A010C947A0174
:100020000C947A010C947A010C947A010C947A0164
:100030000C947A010C947A010C947A010C947A0154
:100040000C941D060C947A010C948D060C94670692
:100050000C947A010C947A010C947A010C947A0134
:100060000C947A010C947A01000000000000005FFB
:1000700000000007000700147F147F14242A7F2A41
:10008000122313086462364955225000050300000C
:10009000001C2241000041221C0014083E081408E4
:1000A000083E0808005030000008080808080060F2
:1000B00060000020100804023E5149453E00427F86
:1000C000400042615149462141454B311814127F8D
:1000D0001027454545393C4A494930017109050316
:1000E0003649494936064949291E0036360000007E
:1000F0005636000008142241001414141414004150
:100100002214080201510906324979413E7E11113B
:10011000117E7F494949363E414141227F4141227A
:100120001C7F494949417F090909013E4149497AF2
:100130007F0808087F00417F41002040413F017F48
:10014000081422417F404040407F020C027F7F0420
:1001500008107F3E4141413E7F090909063E415159
:10016000215E7F09192946464949493101017F012C
:10017000013F4040403F1F2040201F3F4038403F4C
:100180006314081463070870080761514945430068
:100190007F41410002040810200041417F00040219
:1001A0000102044040404040000102040020545439
:1001B00054787F48444438384444442038444448C0
:1001C0007F3854545418087E0901020C5252523E92
:1001D0007F0804047800447D40002040443D007FB7
:1001E0001028440000417F40007C041804787C08FB
:1001F00004047838444444387C1414140808141453
:10020000187C7C080404084854545420043F44409B
:10021000203C4040207C1C2040201C3C4030403C86
:1002200044281028440C5050503C4464544C440022
:100230000836410000007F00000041360800100829
:100240000810080000000000000000002400270043
:100250002A0000000000250028002B0000000000FC
:1002600023002600290004040404040404040202F8
:100270000202020203030303030301020408102025
:100280004080010204081020010204081020000030
:100290000008000201000003040700000000000045
:1002A0000000BF0611241FBECFEFD8E0DEBFCDBFD8
:1002B00011E0A0E0B1E0E4EDFBE102C005900D9299
:1002C000AC36B107D9F722E0ACE6B1E001C01D922F
:1002D000A238B207E1F711E0C2E5D1E004C02197EE
:1002E000FE010E94E20DC135D107C9F70E94FE064A
:1002F0000C94E80D0C940000E7E9F1E0A089B189C5
:1003000082E08C93A485B5851C92A685B7858FEC79
:100310008C93108EA489B58986E08C93A289B389C9
:100320008C9180618C93A289B3898C9188608C9325
:10033000A289B3898C9180688C930288F389E02D1F
:1003400080818F7D80830895833081F028F481300F
:1003500099F08230A9F008958730A9F08830C9F06B
:100360008430B1F4809180008F7D03C08091800043
:100370008F7780938000089584B58F7784BD08952A
:1003800084B58F7DFBCF8091B0008F778093B000D4
:1003900008958091B0008F7DF9CFCF93DF93282F00
:1003A00030E0F901E257FD4F8491F901E658FD4F25
:1003B000D491F901EA59FD4FC491CC23A1F08111E8
:1003C0000E94A401EC2FF0E0EE0FFF1FE45AFD4F56
:1003D000A591B491EC91ED2381E090E009F480E0E7
:1003E000DF91CF91089580E090E0FACF1F93CF93F3
:1003F000DF93282F30E0F901E257FD4F8491F90196
:10040000E658FD4FD491F901EA59FD4FC491CC2330
:10041000A9F0162F81110E94A401EC2FF0E0EE0F3D
:10042000FF1FEE5AFD4FA591B4918FB7F894EC9150
:10043000111108C0D095DE23DC938FBFDF91CF91DF
:100440001F910895DE2BF8CFCF93DF9390E0FC014E
:10045000E658FD4F24918A599D4FFC0184918823D1
:10046000D1F090E0880F991FFC01E85BFD4FA5914A
:10047000B491FC01EE5AFD4FC591D49161110EC0AB
:100480009FB7F8948C91E22FE0958E238C9328816E
:10049000E223E8839FBFDF91CF9108958FB7F8944F
:1004A000EC91E22BEC938FBFF6CF2091000190E40A
:1004B000299F900111248E50822B80937C00809183
:1004C0007A00806480937A0080917A0086FDFCCF68
:1004D000809178009091790008953FB7F8948091C9
:1004E000930190919401A0919501B091960126B548
:1004F000A89B05C02F3F19F00196A11DB11D3FBF5C
:10050000BA2FA92F982F8827BC01CD01620F711D2A
:10051000811D911D42E0660F771F881F991F4A9524
:10052000D1F708958F929F92AF92BF92CF92DF92B0
:10053000EF92FF924B015C010E946D026B017C0106
:100540000E946D026C197D098E099F09683E7340F7
:1005500081059105A8F321E0821A9108A108B1084C
:1005600088EEC80E83E0D81EE11CF11C81149104B2
:10057000A104B10429F7FF90EF90DF90CF90BF90D6
:10058000AF909F908F900895AF92BF92CF92DF92DD
:10059000EF92FF920F931F93CF93DF936C017B0138
:1005A0008B01040F151FEB015E01AE18BF08C017C9
:1005B000D10759F06991D601ED91FC910190F0813C
:1005C000E02DC6010995892B79F7C501DF91CF91FF
:1005D0001F910F91FF90EF90DF90CF90BF90AF9061
:1005E0000895FC01538D448D252F30E0842F90E039
:1005F000821B930B541710F0CF960895019708951E
:10060000FC01918D828D981761F0A28DAE0FBF2FE6
:10061000B11D5D968C91928D9F5F9F73928F90E03C
:1006200008958FEF9FEF0895FC01918D828D9817AB
:1006300031F0828DE80FF11D858D90E008958FEFE8
:100640009FEF0895FC01918D228D892F90E0805CB1
:100650009F4F821B91098F739927089587E991E035
:100660000E94220321E0892B09F420E0822F0895C3
:1006700080E090E0892B29F00E942E0381110C94D8
:1006800000000895FC01A48DA80FB92FB11DA35A35
:10069000BF4F2C91848D90E001968F739927848FA2
:1006A000A689B7892C93A089B1898C9183708064C5
:1006B0008C93938D848D981306C00288F389E02D66
:1006C00080818F7D80830895EF92FF920F931F9317
:1006D000CF93DF93EC0181E0888F9B8D8C8D9813F5
:1006E0001AC0E889F989808185FF15C09FB7F89401
:1006F000EE89FF896083E889F9898081837080644D
:1007000080839FBF81E090E0DF91CF911F910F9197
:10071000FF90EF900895F62E0B8D10E00F5F1F4FA6
:100720000F731127E02E8C8D8E110CC00FB607FCB5
:10073000FACFE889F989808185FFF5CFCE010E9443
:100740004203F1CFEB8DEC0FFD2FF11DE35AFF4F6C
:10075000F0829FB7F8940B8FEA89FB8980818062D1
:10076000CFCFCF93DF93EC01888D8823B9F0AA898E
:10077000BB89E889F9898C9185FD03C0808186FD5C
:100780000DC00FB607FCF7CF8C9185FFF2CF8081AB
:1007900085FFEDCFCE010E944203E9CFDF91CF91DB
:1007A000089587E991E00E94B103E7E9F1E0A289A9
:1007B000B3898C918F7E8C93A289B3898C91877F2A
:1007C0008C93A289B3898C918F778C93A289B389FA
:1007D0008C918F7D8C93828D818F0895089590E008
:1007E00080E0089520917C0130917D01232B89F0D8
:1007F00020E030E242EB56E40E94260D20E030E497
:100800004CE156E40E94CE0B9B01AC010E945D0BB3
:10081000089520E030E84BEB57E40E94260D20E0DD
:1008200030E44CE156E40E94CE0B20E030E040EC96
:1008300051E40E945C0B0895EF92FF920F931F9377
:10084000CF93DF93EC01042F8E810E94F60160E0CC
:1008500088850E94F601FC80ED8018E0602F661FFD
:100860006627661F8E2D0E94F601000F61E08F2D16
:100870000E94F60160E08F2D0E94F601115071F781
:1008800061E08885DF91CF911F910F91FF90EF90EC
:100890000C94F601CF93DF93C4E3D2E01C8690E082
:1008A0006B8529E3629F612D1124669570E06F5F6F
:1008B0007F4F0E94980D8D8740E860E0CE010E9436
:1008C0001C044D85406460E0CE01DF91CF910C9413
:1008D0001C04FB0101900020E9F73197AF01461B92
:1008E000570BDC01ED91FC910280F381E02D09941E
:1008F0006FE171E087E991E00C9469048F929F9217
:10090000AF92BF92EF92FF920F931F93CF93DF931B
:10091000CDB7DEB7A1970FB6F894DEBF0FBECDBF3F
:100920007C01FA01CB0119A2223008F42AE08E01E1
:100930000F5D1F4F822E912CB12CA12CBF01A50160
:1009400094010E94AC0DF901CA016A300CF5605D9A
:10095000D8016E938D01232B242B252B79F790E062
:1009600080E0109721F0BD01C7010E946904A196A3
:100970000FB6F894DEBF0FBECDBFDF91CF911F91B0
:100980000F91FF90EF90BF90AF909F908F90089540
:10099000695CDECF8F929F92AF92BF92CF92DF922F
:1009A000EF92FF920F931F93CF93DF93EC016A01B5
:1009B0007B01AB019601CB01B6010E94930D62E26F
:1009C00071E0811126C046015701E894B7F82FEF76
:1009D0003FEF4FE75FE7C501B4010E94930D81111E
:1009E0000CC02FEF3FEF4FE75FE7C501B4010E9456
:1009F000C90B66E271E0181664F02FEF3FEF4FE786
:100A00005FE4C701B6010E94210D18168CF46AE25A
:100A100071E0CE01DF91CF911F910F91FF90EF9088
:100A2000DF90CF90BF90AF909F908F900C9469040F
:100A30002FEF3FEF4FE75FECC701B6010E94C90BF4
:100A400087FDE5CF20E030E0A901C701B6010E9493
:100A5000C90B10E000E087FF0DC0E881F98101902B
:100A6000F081E02D6DE2CE0109958C01F7FAF0944A
:100A7000F7F8F0942AE037ED43EA5BE3C701B601EB
:100A80000E945D0B4B015C010E94400C6B017C01DC
:100A90000E946F0C9B01AC01C501B4010E945C0B6C
:100AA0004B015C012AE0B701A601CE010E947E0441
:100AB000080F191FE881F9810190F081E02D6EE2A5
:100AC000CE010995080F191F20E030E040E251E403
:100AD000C501B4010E94260D4B015C010E94400C2F
:100AE0006B01F12CE12C2AE0B701A601CE010E9496
:100AF0007E04080F191FC701B6010E946F0C9B01ED
:100B0000AC01C501B4010E945C0B20E030E040E282
:100B100051E40E94260D0E94400CAB0170E060E0A1
:100B20002AE0CE010E947E04800F911FDF91CF91B9
:100B30001F910F91FF90EF90DF90CF90BF90AF90FB
:100B40009F908F9008950C946904CF92DF92EF925A
:100B5000FF920F931F93CF93DF9300D000D01F928B
:100B6000CDB7DEB767FD66C07C01862F90E06032AE
:100B700008F44FC0809725E0289FB001299F700D91
:100B8000112468597F4F45E050E0CE0101960E9444
:100B9000530B8E010F5F1F4F680185E0C80ED11CFB
:100BA000F80141918F0161E0C7010E941C040C15FE
:100BB0001D05B1F740E061E0C7010E941C04F70188
:100BC000848590E00696628570E00E94980D848787
:100BD000892B79F4858590E00196638529E3629FEE
:100BE000612D1124669570E06F5F7F4F0E94980D14
:100BF000858781E090E00F900F900F900F900F90FD
:100C0000DF91CF911F910F91FF90EF90DF90CF90E8
:100C10000895FC013796EE0FFF1FEE0DFF1D0081BA
:100C200011810115110509F0B7CF45E050E068E6E4
:100C300070E0ABCF90E080E0DECF1F920F920FB656
:100C40000F9211242F933F938F939F93AF93BF9352
:100C500080918F0190919001A0919101B0919201AA
:100C600030918E0123E0230F2D3758F50196A11DF9
:100C7000B11D20938E0180938F0190939001A093DA
:100C80009101B09392018091930190919401A09170
:100C90009501B09196010196A11DB11D809393011C
:100CA00090939401A0939501B0939601BF91AF9159
:100CB0009F918F913F912F910F900FBE0F901F909A
:100CC000189526E8230F0296A11DB11DD2CF1F92C1
:100CD0000F920FB60F9211242F933F934F935F9370
:100CE0006F937F938F939F93AF93BF93EF93FF93F4
:100CF00087E991E00E944203FF91EF91BF91AF918C
:100D00009F918F917F916F915F914F913F912F9123
:100D10000F900FBE0F901F9018951F920F920FB655
:100D20000F9211242F938F939F93EF93FF93E09152
:100D3000A701F091A8018081E091AD01F091AE0191
:100D400082FD1BC090818091B0018F5F8F732091D5
:100D5000B101821741F0E091B001F0E0E956FE4F99
:100D6000958F8093B001FF91EF919F918F912F917B
:100D70000F900FBE0F901F9018958081F4CFE7E978
:100D8000F1E01382128288EE93E0A0E0B0E0848369
:100D90009583A683B78385E091E09183808385EC7A
:100DA00090E09587848784EC90E09787868780EC35
:100DB00090E0918B808B81EC90E0938B828B82EC26
:100DC00090E0958B848B86EC90E0978B868B118ED0
:100DD000128E138E148EE4E3F2E01382128287E106
:100DE00091E09183808383E0848384E0858385E040
:100DF000868386E0878387E080870895CF93DF939B
:100E0000CDB7DEB72C970FB6F894DEBF0FBECDBFBF
:100E1000789484B5826084BD84B5816084BD85B5D5
:100E2000826085BD85B5816085BD80916E008160E1
:100E300080936E0010928100809181008260809387
:100E40008100809181008160809381008091800089
:100E50008160809380008091B10084608093B100B4
:100E60008091B00081608093B00080917A008460AE
:100E700080937A0080917A00826080937A008091DA
:100E80007A00816080937A0080917A0080688093F4
:100E90007A001092C10081E08093000184E5809384
:100EA0003E0280E380933F0210923D021092400286
:100EB00010924102E2E4F2E080E4DF011D928A95A3
:100EC000E9F761E0809138020E94240261E080919C
:100ED00039020E94240261E080913A020E942402B9
:100EE00061E080913B020E94240261E080913C021B
:100EF0000E94240261E080913B020E94F60161E0C1
:100F000080913C020E94F60160E080913B020E94C9
:100F1000F60164E670E080E090E00E94920261E0F9
:100F200080913B020E94F60141E260E084E392E09E
:100F30000E941C0443E160E084E392E00E941C04F0
:100F400080913D0242EC813039F440EE60E084E370
:100F500092E00E941C0445E060E084E392E00E947D
:100F60001C0440E260E084E392E00E941C0449E03B
:100F700060E084E392E00E941C0480E00E944A0446
:100F80001A82198280913F02869586958695909166
:100F90003E02899FC0011124E981FA81E817F9070F
:100FA00068F440E061E084E392E00E941C0429813F
:100FB0003A812F5F3F4F3A832983E4CF80E00E943C
:100FC0004A0448E060E084E392E00E941C044CE0A4
:100FD00060E084E392E00E941C0464E670E080E03C
:100FE00090E00E94920240E860E084E392E00E9478
:100FF0001C0440E460E084E392E00E941C0460E092
:1010000087E00E94240261E08DE00E94240260E0FB
:101010008DE00E94F60160E088E00E94240260E01A
:1010200088E00E94F6010E947C0110E000E083E16C
:101030000E9455026C0182E10E9455027C0181E10F
:101040000E9455023C0180E10E9455029E838D83DF
:1010500088E00E94CD011C0187E00E94CD019A87A3
:10106000898790937D0180937C01B601DD0C880B0C
:10107000990B0E94710C20E030E040EA50E40E949D
:10108000260D20E030EC4FE754E40E94CE0B0E9486
:10109000F2034B015C0180928A0190928B01A09235
:1010A0008C01B0928D01B701FF0C880B990B0E9447
:1010B000710C20E030E040EA50E40E94260D20E070
:1010C00030EC4FE754E40E94CE0B0E94F2036B0118
:1010D0007C01C0928601D0928701E0928801F09253
:1010E0008901B301770C880B990B0E94710C20E0E9
:1010F00030E040EA50E40E94260D20E030EC4FE75B
:1011000054E40E94CE0B0E94F20369837A838B839E
:101110009C836093820170938301809384019093F8
:101120008501AD81BE81BD01BB0F880B990B0E946B
:10113000710C20E030E040EA50E40E94260D20E0EF
:1011400030EC4FE754E40E94CE0B0E94F2036D8313
:101150007E838F83988760937E0170937F01809355
:1011600080019093810180926C0190926D01A09218
:101170006E01B0926F01C0927001D0927101E09245
:101180007201F092730189819A81AB81BC81809355
:10119000740190937501A0937601B09377018D81CE
:1011A0009E81AF81B8858093780190937901A09357
:1011B0007A01B0937B01ACE6B1E0BC87AB87043029
:1011C00011050CF5EB85FC85419051906190719073
:1011D000FC87EB8720E030E0A901C301B2010E9447
:1011E000210D18160CF011C120E030E040EA51E466
:1011F000C301B2010E94210D18160CF01CC161E060
:101200008DE00E94F60129853A85232B09F024C13F
:1012100080E00E944A046EE271E084E392E00E9462
:10122000A30540918A0150918B0160918C017091CE
:101230008D0184E392E00E94CA0463E371E084E3D9
:1012400092E00E94A3052114310431F10E947C0137
:1012500067E371E087E991E00E9469040E947804E5
:101260006EE271E087E991E00E94A30540918A0156
:1012700050918B0160918C0170918D0187E991E013
:101280000E94CA0463E371E087E991E00E94A3052C
:101290000E9478040E94D10381E00E944A0464E421
:1012A00071E084E392E00E94A30540918601509191
:1012B0008701609188017091890184E392E00E9426
:1012C000CA0463E371E084E392E00E94A30582E034
:1012D0000E944A0469E471E084E392E00E94A3055D
:1012E0004091820150918301609184017091850148
:1012F00084E392E00E94CA0463E371E084E392E035
:101300000E94A30583E00E944A046EE471E084E336
:1013100092E00E94A30540917E0150917F0160916F
:1013200080017091810184E392E00E94CA0463E32A
:1013300071E084E392E00E94A305232809F452C0DF
:101340000E947C0164E471E087E991E00E94A305BA
:1013500040918601509187016091880170918901C7
:1013600087E991E00E94CA0463E371E087E991E0B4
:101370000E94A3050E94780469E471E087E991E086
:101380000E94A305409182015091830160918401E4
:101390007091850187E991E00E94CA0463E371E0DE
:1013A00087E991E00E94A3050E9478046EE471E051
:1013B00087E991E00E94A30540917E0150917F0151
:1013C000609180017091810187E991E00E94CA04D7
:1013D00063E371E087E991E00E94A3050E9478042D
:1013E0000E94D10364EF71E080E090E00E949202DD
:1013F00080E090E0892B09F41ACE0E942E03882306
:1014000009F415CE0E94000012CE20E030E040EA40
:1014100051ECC301B2010E94C90B87FDF0CE20E060
:1014200030E040EA51E4C301B2010E94210D1816D8
:101430000CF4E5CE0AC020E030E040EA51ECC301F4
:10144000B2010E94C90B87FDDACE60E08DE00E94F8
:10145000F6010F5F1F4FB3CE23EF34E045EB5FE3A0
:10146000C501B4010E94CE0B60938A0170938B0179
:1014700080938C0190938D0123EF34E045EB5FE383
:10148000C701B6010E94CE0B60938601709387015D
:10149000809388019093890123EF34E045EB5FE36B
:1014A00069817A818B819C810E94CE0B609382013D
:1014B00070938301809384019093850123EF34E03E
:1014C00045EB5FE36D817E818F8198850E94CE0B15
:1014D00060937E0170937F018093800190938101DE
:1014E00080E00E944A046EE271E084E392E00E9490
:1014F000A30540918A0150918B0160918C017091FC
:101500008D0184E392E00E94CA0463E571E084E304
:1015100092E00E94A3052114310431F10E947C0164
:1015200068E571E087E991E00E9469040E9478040F
:101530006EE271E087E991E00E94A30540918A0183
:1015400050918B0160918C0170918D0187E991E040
:101550000E94CA0465E671E087E991E00E94A30554
:101560000E9478040E94D10381E00E944A0464E44E
:1015700071E084E392E00E94A305409186015091BE
:101580008701609188017091890184E392E00E9453
:10159000CA0463E571E084E392E00E94A30582E05F
:1015A0000E944A0469E471E084E392E00E94A3058A
:1015B0004091820150918301609184017091850175
:1015C00084E392E00E94CA0463E571E084E392E060
:1015D0000E94A30583E00E944A046EE471E084E364
:1015E00092E00E94A30540917E0150917F0160919D
:1015F00080017091810184E392E00E94CA0463E556
:1016000071E084E392E00E94A305232809F4EACE66
:101610000E947C0164E471E087E991E00E94A305E7
:1016200040918601509187016091880170918901F4
:1016300087E991E00E94CA0465E671E087E991E0DC
:101640000E94A3050E94780469E471E087E991E0B3
:101650000E94A30540918201509183016091840111
:101660007091850187E991E00E94CA0465E671E006
:1016700087E991E00E94A3050E9478046EE471E07E
:1016800087E991E00E94A30540917E0150917F017E
:10169000609180017091810187E991E00E94CA0404
:1016A00065E671E097CEFB01DC0102C005900D926A
:1016B00041505040D8F708955058BB27AA270E94A0
:1016C000740B0C94E70C0E94D90C38F00E94E00CCB
:1016D00020F039F49F3F19F426F40C94D60C0EF444
:1016E000E095E7FB0C94D00CE92F0E94F80C58F31E
:1016F000BA17620773078407950720F079F4A6F5F7
:101700000C941A0D0EF4E0950B2EBA2FA02D0B01A0
:10171000B90190010C01CA01A0011124FF27591B36
:1017200099F0593F50F4503E68F11A16F040A22F3C
:10173000232F342F4427585FF3CF469537952795AD
:10174000A795F0405395C9F77EF41F16BA0B620BAC
:10175000730B840BBAF09150A1F0FF0FBB1F661FF3
:10176000771F881FC2F70EC0BA0F621F731F841F36
:1017700048F4879577956795B795F7959E3F08F05C
:10178000B0CF9395880F08F09927EE0F979587951E
:1017900008950E94AC0C08F481E008950E94E20BC9
:1017A0000C94E70C0E94E00C58F00E94D90C40F019
:1017B00029F45F3F29F00C94D00C51110C941B0DAF
:1017C0000C94D60C0E94F80C68F39923B1F35523BE
:1017D00091F3951B550BBB27AA2762177307840744
:1017E00038F09F5F5F4F220F331F441FAA1FA9F3DA
:1017F00035D00E2E3AF0E0E832D091505040E695C8
:10180000001CCAF72BD0FE2F29D0660F771F881F28
:10181000BB1F261737074807AB07B0E809F0BB0B1B
:10182000802DBF01FF2793585F4F3AF09E3F51052F
:1018300078F00C94D00C0C941B0D5F3FE4F3983EB1
:10184000D4F3869577956795B795F7959F5FC9F718
:10185000880F911D9695879597F90895E1E0660F99
:10186000771F881FBB1F621773078407BA0720F012
:10187000621B730B840BBA0BEE1F88F7E09508957B
:101880000E94000D88F09F5798F0B92F9927B75103
:10189000B0F0E1F0660F771F881F991F1AF0BA9514
:1018A000C9F714C0B13091F00E941A0DB1E008954B
:1018B0000C941A0D672F782F8827B85F39F0B93F3D
:1018C000CCF3869577956795B395D9F73EF49095C7
:1018D0008095709561957F4F8F4F9F4F0895E89445
:1018E00009C097FB3EF490958095709561957F4F68
:1018F0008F4F9F4F9923A9F0F92F96E9BB27939516
:10190000F695879577956795B795F111F8CFFAF425
:10191000BB0F11F460FF1BC06F5F7F4F8F4F9F4F56
:1019200016C0882311F096E911C0772321F09EE8B4
:10193000872F762F05C0662371F096E8862F70E01A
:1019400060E02AF09A95660F771F881FDAF7880FF4
:101950009695879597F90895990F0008550FAA0B4A
:10196000E0E8FEEF16161706E807F907C0F01216B2
:101970001306E407F50798F0621B730B840B950BB5
:1019800039F40A2661F0232B242B252B21F408950A
:101990000A2609F4A140A6958FEF811D811D0895A7
:1019A00097F99F6780E870E060E008959FEF80EC12
:1019B000089500240A9416161706180609060895B5
:1019C00000240A9412161306140605060895092E1B
:1019D0000394000C11F4882352F0BB0F40F4BF2B8A
:1019E00011F460FF04C06F5F7F4F8F4F9F4F0895CA
:1019F00057FD9058440F551F59F05F3F71F04795C0
:101A0000880F97FB991F61F09F3F79F087950895A4
:101A1000121613061406551FF2CF4695F1DF08C0C3
:101A2000161617061806991FF1CF869571056105E0
:101A300008940895E894BB2766277727CB0197F988
:101A400008950E94AC0C08F48FEF08950E94390DA0
:101A50000C94E70C0E94D90C38F00E94E00C20F0A6
:101A6000952311F00C94D00C0C94D60C11240C94EA
:101A70001B0D0E94F80C70F3959FC1F3950F50E079
:101A8000551F629FF001729FBB27F00DB11D639F30
:101A9000AA27F00DB11DAA1F649F6627B00DA11DD6
:101AA000661F829F2227B00DA11D621F739FB00D7C
:101AB000A11D621F839FA00D611D221F749F3327EC
:101AC000A00D611D231F849F600D211D822F762F85
:101AD0006A2F11249F5750409AF0F1F088234AF062
:101AE000EE0FFF1FBB1F661F771F881F91505040CE
:101AF000A9F79E3F510580F00C94D00C0C941B0D5F
:101B00005F3FE4F3983ED4F3869577956795B79554
:101B1000F795E7959F5FC1F7FE2B880F911D96956E
:101B2000879597F908950E94AC0C880B990B08953E
:101B300097FB072E16F4009407D077FD09D00E947A
:101B4000CE0D07FC05D03EF4909581959F4F0895EA
:101B5000709561957F4F0895A1E21A2EAA1BBB1BB9
:101B6000FD010DC0AA1FBB1FEE1FFF1FA217B30769
:101B7000E407F50720F0A21BB30BE40BF50B661F7F
:101B8000771F881F991F1A9469F760957095809543
:101B900090959B01AC01BD01CF010895AA1BBB1B11
:101BA00051E107C0AA1FBB1FA617B70710F0A61B5D
:101BB000B70B881F991F5A95A9F780959095BC017E
:101BC000CD010895EE0FFF1F0590F491E02D0994CB
:041BD000F894FFCFB7
:101BD40001000000006403C402F102B10322030007
:101BE40003140300000000A505C402EF03EE030D77
:101BF4000A006E616E00696E66006F76660056318B
:101C04003A200020562000566F6C7461676573207B
:101C14004443200056323A200056333A20005634CA
:101C24003A200056726D7300566F6C746167657369
:0C1C340020414320002056726D732000F8
:00000001FF
